:060000000A128A110C280F
:10000800FE00030EF5000A08F6000A128A116E288F
:100018000A128A110F28F701F801F901FA01FB0108
:1000280083010A128A11ED28831203131F083F392E
:1000380080389F00831603139F139F129F12432833
:10004800C3309F055E281F08C33904389F005E2807
:100058001F08C33908389F005E281F08C3390C38A9
:100068009F005E281F08C33910389F005E281F08AC
:10007800C33914389F005E28C3309F055E28831259
:1000880003132108003A03194A2840282008003A97
:1000980003192428013A03192728033A03192C289D
:1000A800013A03193128073A03193628013A031986
:1000B8003B2840280C13831603130C172030831297
:1000C8000313A200A20B66280000831203131F1457
:1000D8009F140800831203138C1D73287428852825
:1000E8000A128A1133210A128A1183120313880013
:1000F80006080A128A1143210A128A11831203136D
:100108008C110C1F88288928AF281F0CF400740C48
:100118000F39003A031D91289228A5280A128A113E
:1001280029210A128A117108F8007008F7000A12CA
:100138008A1129210A128A11700883120313860072
:10014800AE280A128A1129210A128A11700883120C
:10015800031386000C1376088A00750E8300FE0EC2
:100168007E0E090001308316031788008901831663
:1001780003130514831203138501831603138601E1
:1001880088018312031386018801703083160313D4
:100198008F040F14003083120313A000A1000A1269
:1001A8008A1118200A128A110B178B17831203134E
:1001B8008C11831603138C15851683120313A00163
:1001C800A101A20124300A128A110B210A128A11F4
:1001D80008000A128A11B6200A128A118312031320
:1001E8009F149F18F828F928F5281A30831203134A
:1001F800A500F730A400A40BFF28A50BFF280429AD
:10020800831203139F14F5280A128A110C288312EB
:100218000313A30083160313871283120313231DEA
:10022800162917291D2922088316031394008715F8
:1002380023292008220483160313940087118312AC
:1002480003132308210494000800831203131E08D3
:10025800F200F3017208F0007308F10008000A12B6
:100268008A113C210A128A11831203131308080009
:1002780083160313141C412942293C290800F00065
:0A02880070088312031393000800AE
:08400000FF3FFF3FFF3FFF3FC0
:04400E00D420FF3F7C
:00000001FF
