:060000000A128A110C280F
:10000800FE00030EF6000A08F7000A128A111F28DC
:100018000A128A110F28FA01FB01FC01FD01831263
:100028000313A001A101A201A301A401A501830159
:100038000A128A115A29831203138C1D2428252891
:1000480048280A128A11A0210A128A11FC007C038E
:10005800031D2F28302837287D080A128A11B0215D
:100068000A128A11452802307C06031D3C283D28C7
:1000780045288312031308080A128A11B0210A12AC
:100088008A11831203138C110C1F4B284C287528D6
:100098001F0CF400740C0F39003A031D542855281E
:1000A8006A280A128A1196210A128A117108831283
:1000B8000313A1007008A0000A128A1196210A12DF
:1000C8008A11700883120313880073280A128A1190
:1000D80096210A128A1170088312031388000C13E0
:1000E800BE280B1C78287928BE2800300618013055
:1000F800F8007808031D812882289A287B03031DAD
:10010800862887289A288230F500DD30F400F40B21
:100118008B28F50B8B289028831203130618952833
:1001280096289A280130F4007408FD077808FB0027
:10013800003086180130F9007908031DA428A52885
:10014800BB287A03031DA928AA28BB288230F500FA
:10015800DD30F400F40BAE28F50BAE28B32883127B
:1001680003138618B828B928BB280130FD0279087E
:10017800FA000B1077088A00760E8300FE0E7E0EBA
:100188000900831203131F083F3980389F00831624
:1001980003139F139F129F12F028C3309F050B294A
:1001A8001F08C33904389F000B291F08C3390838B2
:1001B8009F000B291F08C3390C389F000B291F0803
:1001C800C33910389F000B291F08C33914389F0002
:1001D8000B29C3309F050B29831203132708003A04
:1001E8000319F728ED282608003A0319D128013AFF
:1001F8000319D428033A0319D928013A0319DE2828
:10020800073A0319E328013A0319E828ED280C13E3
:10021800831603130C17203083120313A800A80BAE
:1002280013290000831203131F149F1408000130C0
:100238008316031788008901831603130514831294
:100248000313850103308316031386008801831284
:100258000313860188017030831603138F040F146B
:10026800003083120313A600A7000A128A11C520C2
:100278000A128A118316031381138B150B10161497
:1002880096140B178B17831203138C118316031301
:100298008C15851683120313A601A701A801243023
:1002A8000A128A1178210A128A1108000A128A1180
:1002B8001B210A128A11831203139F149F186529A0
:1002C800662962291A3083120313AB00F730AA009B
:1002D800AA0B6C29AB0B6C297129831203139F1489
:1002E80062290A128A110C2883120313A9008316A3
:1002F8000313871283120313291D832984298A294A
:1003080028088316031394008715902926082804C3
:1003180083160313940087118312031329082704F3
:1003280094000800831203131E08F200F3017208F8
:10033800F0007308F10008000A128A11A9210A12B4
:100348008A11831203131308080083160313141C5D
:10035800AE29AF29A9290800F000700883120313F9
:0403680093000800F6
:08400000FF3FFF3FFF3FFF3FC0
:04400E00D420FF3F7C
:00000001FF
