:060000000A128A11F32F21
:10000800F5007503031D09280A28142874087F3E83
:10001800F60076080A128A1513260A128A1123286E
:1000280002307506031D19281A2823287408BF3EB4
:10003800F60076080A128A1513260A128A11080091
:10004800F800F401F5017008F200F3017208F600F7
:100058007308F700781C3128322838287608F40706
:100068000318F50A7708F50701300310F60DF70DA8
:10007800FF3E031D39280310F80C7808031D452896
:1000880046282E287508F1007408F0000800F601CB
:10009800F11F4F2850285728F009F109F00A0319D1
:1000A800F10AF601F60AF31F5A285B286428F209B8
:1000B800F309F20A0319F30A0130F4007408F6068A
:1000C800F701F8017008710403196B286C28A3283C
:1000D800F501F50A7A2801300310F00DF10DFF3E05
:1000E800031D70280130F4007408F507F11F7D28FE
:1000F8007E286F2801300310F70DF80DFF3E031D11
:100108007F2871087302031D8B2870087202031C74
:100118008E288F2896287008F2027108031CF303B2
:10012800F302771401300310F10CF00CFF3E031DAD
:1001380097280130F502031DA228A3287E287608F7
:100148000319A728A828AD28F709F809F70A0319F9
:10015800F80A7808F1007708F00008000310831205
:1001680003133C0D3D0DC3004308031DBC28BD28E7
:10017800C6280030BD000030BC000030BB00003095
:10018800BA0029293A08BE003B08BF003C08C00055
:100198003D08C1001F300310C10CC00CBF0CBE0CC1
:1001A800FF3E031DCF283E08C200BC17FF30BA052A
:1001B800FF30BB05FF30BC050030BD059630C302DB
:1001C800C31FE728E82802294308803A973E031806
:1001D800EE28EF28F028BD2801300310BD0CBC0C18
:1001E800BB0CBA0CFF3E031DF1280130BE003E08CF
:1001F800C307031D00290129F028192920304302CB
:10020800031C072908291429BD280130BE00031042
:10021800BA0DBB0DBC0DBD0DBE0B0B290130C302C1
:100228004308031D182919290929420803191D29FA
:100238001E292929BA09BB09BC09BD09BA0A03192B
:10024800BB0A0319BC0A0319BD0A0800F80078089C
:1002580003192F2930294429F31F33293429442924
:100268007009FA007109FB007209FC007309FD00AE
:10027800FA0A0319FB0A0319FC0A0319FD0A4C2997
:100288007308FD007208FC007108FB007008FA0092
:100298007308720471047004031D532954295D29DD
:1002A8000030F3000030F2000030F1000030F000C0
:1002B800E1299630F9006D290130F4007408F90736
:1002C80001300310FD0CFC0CFB0CFA0CFF3E031D67
:1002D8006529FE307D05031D7229732960298F2940
:1002E8000130F4007408F9070130FA0700300318E8
:1002F8000130FB07003003180130FC0700300318F9
:100308000130FD0701300310FD0CFC0CFB0CFA0C4E
:10031800FF3E031D8729FF307D05031D942995297C
:100328007429A1290130F9020130F4000310FA0DF3
:10033800FB0DFC0DFD0DF40B9A29FC1BA429A52926
:10034800AB29023079020318AA29AB299629791812
:10035800AE29AF29B729FF30FA05FF30FB057F30FA
:10036800FC05FF30FD050310F90C7908F400F501D0
:10037800F601F70118300310F40DF50DF60DF70D21
:10038800FF3E031DBF297408FA047508FB047608AC
:10039800FC047708FD0478080319D329D429D9293E
:1003A800F31FD729D829D929FD177D08F3007C0820
:1003B800F2007B08F1007A08F00008000A128A159A
:1003C8002D260A128A110A128A1575260A128A110E
:1003D800831203130711033083120313C5009730E8
:1003E800C400C40BF529C50BF52901300A128A157A
:1003F800BC250A128A110A128A15D1250A128A11F5
:100408008312031388000808C400C5014408D600F5
:100418004508D700033083120313C5009730C40082
:10042800C40B142AC50B142A8312031307150330AF
:1004380083120313C6008A30C5005530C400C40BAC
:10044800232AC50B232AC60B232A831203138710DA
:10045800033083120313C5009730C400C40B322A3B
:10046800C50B322A01300A128A15BC250A128A11D4
:100478000A128A15D1250A128A11831203138600DB
:100488000608C400C5014408D4004508D500033057
:1004980083120313C5009730C400C40B512AC50B3F
:1004A800512A831203138714033083120313C600DF
:1004B8008A30C5005530C400C40B602AC50B602AB9
:1004C800C60B602A83120313071103308312031328
:1004D800C5009730C400C40B6F2AC50B6F2A0230C1
:1004E8000A128A15BC250A128A110A128A15D12500
:1004F8000A128A1183120313E800033083120313CC
:10050800C5009730C400C40B872AC50B872A8312FD
:1005180003130715033083120313C6008A30C5007E
:100528005530C400C40B962AC50B962AC60B962ACA
:10053800831203138710033083120313C500973007
:10054800C400C40BA52AC50BA52A01300A128A15B6
:10055800BC250A128A110A128A15D1250A128A1193
:10056800831203138600033083120313C5009730E8
:10057800C400C40BBD2AC50BBD2A831203138714FC
:10058800033083120313C6008A30C5005530C400F7
:10059800C40BCC2AC50BCC2AC60BCC2A8312031356
:1005A8005608F0005708F1000030F11BFF30F20048
:1005B800F30001300A128A112A210A128A117308DB
:1005C80083120313A7007208A6007108A50070081B
:1005D800A4003C30A300A030A200A030A100A130AC
:1005E800A0000A128A11AE240A128A118312031378
:1005F8002308D3002208D2002108D1002008D00007
:100608005308A7005208A6005108A5005008A400E6
:100618004230A300C830A2000030A1000030A00082
:100628000A128A11AE240A128A11831203132308AC
:10063800BD002208BC002108BB002008BA000A122D
:100648008A11B2200A128A11831203133B08DB00B5
:100658003A08DA005B08FA005A08F9000A128A1503
:10066800C0260A128A11831203135408F000550891
:10067800F1000030F11BFF30F200F30001300A12E4
:100688008A112A210A128A11730883120313A700F8
:100698007208A6007108A5007008A4003C30A300E9
:1006A800A030A200A030A100A130A0000A128A1137
:1006B800AE240A128A11831203132308D3002208D6
:1006C800D2002108D1002008D0005308A700520802
:1006D800A6005108A5005008A4004230A300C83065
:1006E800A2000030A1000030A0000A128A11AE2436
:1006F8000A128A11831203132308BD002208BC00C2
:100708002108BB002008BA000A128A11B2200A1276
:100718008A11831203133B08D9003A08D8005908F4
:10072800FA005808F9000A128A150D270A128A11C8
:10073800831203136808C400C5014408F90045087A
:10074800FA000A128A155A270A128A110A128A15F9
:10075800DA250A128A11F401F40A01300A128A1100
:1007680004200A128A1101300A128A1550260A1228
:100778008A11F401F40A02300A128A1104200A12BA
:100788008A11831203136708303EC70047080A120C
:100798008A15E7250A128A110230F40002300A127B
:1007A8008A1104200A128A112E300A128A15E725A6
:1007B8000A128A110330F40002300A128A11042046
:1007C8000A128A11831203136608303EC8004808CB
:1007D8000A128A15E7250A128A110430F400023039
:1007E8000A128A1104200A128A1183120313650857
:1007F800303EC90049080A128A15E7250A128A11EB
:100808000630F40001300A128A1104200A128A11F3
:1008180006300A128A1550260A128A110630F40088
:1008280002300A128A1104200A128A118312031351
:100838006308303ECA004A080A128A15E7250A12D8
:100848008A110730F40002300A128A1104200A12B1
:100858008A112E300A128A15E7250A128A110830E1
:10086800F40002300A128A1104200A128A11831233
:1008780003136208303ECB004B080A128A15E7259D
:100888000A128A110930F40002300A128A1104206F
:100898000A128A11831203136108303ECC004C08F7
:1008A8000A128A15E7250A128A110B30F400013062
:1008B8000A128A1104200A128A110B300A128A15A8
:1008C80050260A128A110B30F40002300A128A11DB
:1008D80004200A128A11831203135F08303ECD00E8
:1008E8004D080A128A15E7250A128A110C30F400FD
:1008F80002300A128A1104200A128A118312031381
:100908005E08303ECE004E080A128A15E7250A1204
:100918008A110D30F40002300A128A1104200A12DA
:100928008A11831203135D08303ECF004F080A1264
:100938008A15E7250A128A11823083120313C5002B
:10094800DD30C400C40BA62CC50BA62CEC290A125A
:100958008A1100288312031323088039AD00230865
:10096800A8002807B300A21FBA2CBB2CBC2C331438
:1009780033080319C02CC12CD02C330A031DC52CF5
:10098800C62CCE2C0030A3000030A2000030A100FD
:100998000030A000A217D82C0030A3000030A2001D
:1009A8000030A1000030A00027088039A8002808DE
:1009B800AD062708A8002807B200A61FE42CE52CDE
:1009C800E62C321432080319EA2CEB2CFA2C320AE2
:1009D800031DEF2CF02CF82C0030A7000030A600E7
:1009E8000030A5000030A400A617022D0030A70093
:1009F8000030A6000030A5000030A400320803191A
:100A0800062D072D0C2D3308031D0B2D0C2D152D30
:100A18000030A3000030A2000030A1000030A00088
:100A2800F22F2008F00026080A128A1124200A1240
:100A38008A11710883120313B9007008B8003808C6
:100A4800A800A901AA01AB012B08B1002A08B0002F
:100A58002908AF002808AE003908A800A901AA0192
:100A6800AB012B08B7002A08B6002908B5002808EA
:100A7800B4002108F00025080A128A1124200A125D
:100A88008A11710883120313B9007008B800380876
:100A9800A800A901AA01AB012808AE07290803117B
:100AA8000318013E0319592DAF072A08031103182B
:100AB800013E0319602DB0072B0803110318013EEE
:100AC8000319672DB1073908A800A901AA01AB01CC
:100AD8002808B407290803110318013E0319752DC6
:100AE800B5072A0803110318013E03197C2DB60720
:100AF8002B0803110318013E0319832DB707220899
:100B0800F00024080A128A1124200A128A11710896
:100B180083120313B9007008B8003808A800A901A7
:100B2800AA01AB012808AE07290803110318013EE2
:100B380003199F2DAF072A0803110318013E031953
:100B4800A62DB0072B0803110318013E0319AD2D7C
:100B5800B1073908A800A901AA01AB012808B40700
:100B6800290803110318013E0319BB2DB5072A08EC
:100B780003110318013E0319C22DB6072B080311F0
:100B88000318013E0319C92DB7070830A800031040
:100B9800AE0DAF0DB00DB10DA80BCB2D2108F00097
:100BA80024080A128A1124200A128A117108831251
:100BB8000313B9007008B8003808A8003908A9005C
:100BC800AA01AB012808AE07290803110318013E42
:100BD8000319EF2DAF072A0803110318013E031963
:100BE800F62DB0072B0803110318013E0319FD2D3C
:100BF800B1072008F00025080A128A1124200A12D9
:100C08008A11710883120313B9007008B8003808F4
:100C1800A8003908A900AA01AB012808AE072908CD
:100C280003110318013E03191A2EAF072A080311EE
:100C38000318013E0319212EB0072B0803110318CE
:100C4800013E0319282EB1070830A8000310AE0D85
:100C5800AF0DB00DB10DA80B2A2E2008F000240806
:100C68000A128A1124200A128A11710883120313A6
:100C7800B9007008B8003808A8003908A900AA0106
:100C8800AB012808AE07290803110318013E031910
:100C98004E2EAF072A0803110318013E0319552EDB
:100CA800B0072B0803110318013E03195C2EB10786
:100CB8002108F00026080A128A1124200A128A1133
:100CC800710883120313B9007008B8003808A80027
:100CD8003908A900AA01AB012808B407290803119B
:100CE8000318013E0319792EB5072A0803110318C2
:100CF800013E0319802EB6072B0803110318013E85
:100D08000319872EB7072208F00025080A128A114E
:100D180024200A128A11710883120313B90070087B
:100D2800B8003808A8003908A900AA01AB012808AA
:100D3800B407290803110318013E0319A42EB507A7
:100D48002A0803110318013E0319AB2EB6072B0816
:100D580003110318013E0319B22EB7072208F00049
:100D680026080A128A1124200A128A11710883128D
:100D78000313B9007008B8003808A8003908A9009A
:100D8800AA01AB0108300310A80DA90DAA0DAB0DDF
:100D9800FF3E031DC72E2808B407290803110318AE
:100DA800013E0319D82EB5072A0803110318013E7E
:100DB8000319DF2EB6072B0803110318013E031988
:100DC800E62EB7072E08A8002F08A9003008AA00A9
:100DD8003108AB0018300310AB0CAA0CA90CA80CF6
:100DE800FF3E031DEF2E2808B40729080311031836
:100DF800013E0319002FB5072A0803110318013E05
:100E08000319072FB6072B0803110318013E03190E
:100E18000E2FB7070830A8000310AE0DAF0DB00DA8
:100E2800B10DA80B102F33083207A800A901A90D8E
:100E38002808823EB80029080318013EFF3EB90081
:100E4800422F0130A8000310B40DB50DB60DB70D33
:100E5800A80B272FB11F312F322F332F3414013015
:100E6800A8000310AE0DAF0DB00DB10DA80B352FB6
:100E7800FF30B8070318B90AFF30B907B61F452F66
:100E8800462F252FB201B11F4A2F4B2F672FFF3056
:100E98002E05A800FF302F05A900FF303005AA0055
:100EA8007F303105AB002B082A04290428040319D4
:100EB8005E2F5F2F622FB201B20A672F341C652F95
:100EC800662F672F5F2F320803196B2F6C2F9D2F0A
:100ED8000130B407003003180130B507003003189B
:100EE8000130B607003003180130B707371C7D2FD3
:100EF8007E2F9D2F3408A8003508A9003608AA00BF
:100F08003708AB000130AC002B0DAB0CAA0CA90CB8
:100F1800A80CAC0B882F2B08B7002A08B6002908A4
:100F2800B5002808B4000130B8070318B90A003022
:100F3800B9073908803AFF0080307F02031DA62FC9
:100F4800FF303802031CA92FAA2FB52F7F30831238
:100F58000313B7008030B6000030B5000030B4008D
:100F6800E62F831203133908803AFF0080307F028E
:100F7800031DC02F013038020318C32FC42FD02FF0
:100F8800003083120313B7000030B6000030B500FC
:100F98000030B400AD01E62F831203133808B30004
:100FA800FF30B405FF30B5057F30B6050030B70512
:100FB800331CDF2FE02FE12FB6173308A8000310EA
:100FC800280CB7002D08A8002808B7043708A30084
:100FD8003608A2003508A1003408A00008008313D1
:100FE8005430840069300A128A15C9250A128A11F8
:100FF80083010A128A11E22908308A000408840A47
:101008008207003450346F3474343134003450342F
:101018006F3474343234003443346F346E3474347F
:02102800003492
:101B6C00F00070088312031385000800F000700861
:101B7C00831203139300080083160313141CC72D40
:101B8C00C82DC22D080064008001840A04060319C4
:101B9C0000340406CA2D0A128A15C2250A128A15A7
:101BAC00831203131308080000300A128A15132637
:101BBC000A128A1501300A128A1513260A128A157E
:101BCC000800F20083120313091472080A128A1512
:101BDC00B6250A128A158312031389141A30F100E0
:101BEC00F10BF62D00008312031389100800F3008B
:101BFC00831603138712731D042E052E092E7208EB
:101C0C00940087150D2E70087204940087117308C8
:101C1C0071048312031394000800F300831203135E
:101C2C00091073080A128A15B6250A128A1583122E
:101C3C00031389140B30F2006230F100F10B242EE7
:101C4C00F20B242E00008312031389100800831654
:101C5C000317880189018316031385010711871067
:101C6C00860188018901831203138501860188018D
:101C7C008901071587147030831603138F040F1412
:101C8C00F001F101F20120300A128A15FD250A1229
:101C9C008A150800F500F301F401672E7308750727
:101CAC0084000A128A1500200A128A150A128A1553
:101CBC00E7250A128A150130F3070318F40A0030DD
:101CCC00F4077308750784000A128A1500200A129B
:101CDC008A15003A031D732E742E542E0800003002
:101CEC000A128A15B6250A128A153430F500F1301D
:101CFC00F400F40B7F2EF50B7F2E842E30300A125D
:101D0C008A1513260A128A150D30F500FB30F400E3
:101D1C00F40B8E2EF50B8E2E932E30300A128A1564
:101D2C0013260A128A151D30F5009130F400F40BBD
:101D3C009D2EF50B9D2E30300A128A1513260A1291
:101D4C008A153C300A128A1513260A128A150C3091
:101D5C000A128A1513260A128A1501300A128A15DC
:101D6C0013260A128A1506300A128A1513260A122D
:101D7C008A1508006430F0000030F1007A08F30096
:101D8C007908F2000A128A114B200A128A1570087F
:101D9C0083120313E7006430F0000030F1007A087E
:101DAC00F3007908F2000A128A15A7270A128A157D
:101DBC00700883120313E4000A30F0000030F100C5
:101DCC006408FB00FC017B08F2007C08F3000A129B
:101DDC008A114B200A128A15700883120313E6002D
:101DEC000A30F0000030F1006408FB00FC017B08B5
:101DFC00F2007C08F3000A128A15A7270A128A152A
:101E0C00700883120313E4006408E50008006430D2
:101E1C00F0000030F1007A08F3007908F2000A12A1
:101E2C008A114B200A128A15700883120313E300DF
:101E3C006430F0000030F1007A08F3007908F20009
:101E4C000A128A15A7270A128A157008831203131F
:101E5C00E0000A30F0000030F1006008FB00FC01EB
:101E6C007B08F2007C08F3000A128A114B200A123C
:101E7C008A15700883120313E2000A30F000003058
:101E8C00F1006008FB00FC017B08F2007C08F30009
:101E9C000A128A15A7270A128A15700883120313CF
:101EAC00E0006008E10008006430F0000030F10050
:101EBC007A08F3007908F2000A128A114B200A12F0
:101ECC008A15700883120313DF006430F0000030B1
:101EDC00F1007A08F3007908F2000A128A15A72794
:101EEC000A128A15700883120313DC000A30F00002
:101EFC000030F1005C08FB00FC017B08F2007C0860
:101F0C00F3000A128A114B200A128A1570088312E8
:101F1C000313DE000A30F0000030F1005C08FB0017
:101F2C00FC017B08F2007C08F3000A128A15A72733
:101F3C000A128A15700883120313DC005C08DD009A
:101F4C000800F601F31FAB2FAC2FB32FF209F309E6
:101F5C00F20A0319F30AF601F60AF11FB62FB72F8E
:101F6C00BC2FF009F109F00A0319F10A7008710489
:101F7C000319C12FC22FF12FF501F50AD02F013013
:101F8C000310F00DF10DFF3E031DC62F0130F400C0
:101F9C007408F507F11FD32FD42FC52F71087302C6
:101FAC00031DDA2F70087202031CDD2FDE2FE42FC5
:101FBC007008F2027108031CF303F30201300310E2
:101FCC00F10CF00CFF3E031DE52F0130F502031D53
:101FDC00F02FF12FD42F76080319F52FF62FFB2FA6
:101FEC00F209F309F20A0319F30A7308F1007208F3
:041FFC00F0000800E9
:08400000FF3FFF3FFF3FFF3FC0
:04400E00D420FF3F7C
:00000001FF
